{
  "contractName": "MyToken",
  "abi": [
    {
      "inputs": [
        {
          "internalType": "string",
          "name": "name_",
          "type": "string"
        },
        {
          "internalType": "string",
          "name": "symbol_",
          "type": "string"
        },
        {
          "internalType": "uint8",
          "name": "decimals_",
          "type": "uint8"
        },
        {
          "internalType": "uint256",
          "name": "totalSupply_",
          "type": "uint256"
        },
        {
          "internalType": "address",
          "name": "marketingWallet_",
          "type": "address"
        },
        {
          "internalType": "address",
          "name": "adminFundWallet_",
          "type": "address"
        }
      ],
      "stateMutability": "nonpayable",
      "type": "constructor"
    },
    {
      "anonymous": false,
      "inputs": [
        {
          "indexed": true,
          "internalType": "address",
          "name": "owner",
          "type": "address"
        },
        {
          "indexed": true,
          "internalType": "address",
          "name": "spender",
          "type": "address"
        },
        {
          "indexed": false,
          "internalType": "uint256",
          "name": "value",
          "type": "uint256"
        }
      ],
      "name": "Approval",
      "type": "event"
    },
    {
      "anonymous": false,
      "inputs": [
        {
          "indexed": true,
          "internalType": "address",
          "name": "account",
          "type": "address"
        },
        {
          "indexed": false,
          "internalType": "bool",
          "name": "isExcluded",
          "type": "bool"
        }
      ],
      "name": "ExcludeFromFees",
      "type": "event"
    },
    {
      "anonymous": false,
      "inputs": [
        {
          "indexed": false,
          "internalType": "uint256",
          "name": "tokenAmountSent",
          "type": "uint256"
        },
        {
          "indexed": false,
          "internalType": "uint256",
          "name": "ethAmountSent",
          "type": "uint256"
        },
        {
          "indexed": false,
          "internalType": "uint256",
          "name": "liquidity",
          "type": "uint256"
        }
      ],
      "name": "LiquidityAdded",
      "type": "event"
    },
    {
      "anonymous": false,
      "inputs": [
        {
          "indexed": true,
          "internalType": "address",
          "name": "newMarketingWallet",
          "type": "address"
        },
        {
          "indexed": true,
          "internalType": "address",
          "name": "oldMarketingWallet",
          "type": "address"
        }
      ],
      "name": "MarketingWalletUpdated",
      "type": "event"
    },
    {
      "anonymous": false,
      "inputs": [
        {
          "indexed": true,
          "internalType": "address",
          "name": "previousOwner",
          "type": "address"
        },
        {
          "indexed": true,
          "internalType": "address",
          "name": "newOwner",
          "type": "address"
        }
      ],
      "name": "OwnershipTransferred",
      "type": "event"
    },
    {
      "anonymous": false,
      "inputs": [
        {
          "indexed": false,
          "internalType": "uint256",
          "name": "amountIn",
          "type": "uint256"
        },
        {
          "indexed": false,
          "internalType": "address[]",
          "name": "path",
          "type": "address[]"
        }
      ],
      "name": "SwapTokensForETH",
      "type": "event"
    },
    {
      "anonymous": false,
      "inputs": [
        {
          "indexed": true,
          "internalType": "address",
          "name": "from",
          "type": "address"
        },
        {
          "indexed": true,
          "internalType": "address",
          "name": "to",
          "type": "address"
        },
        {
          "indexed": false,
          "internalType": "uint256",
          "name": "value",
          "type": "uint256"
        }
      ],
      "name": "Transfer",
      "type": "event"
    },
    {
      "anonymous": false,
      "inputs": [
        {
          "indexed": true,
          "internalType": "address",
          "name": "newAddress",
          "type": "address"
        },
        {
          "indexed": true,
          "internalType": "address",
          "name": "oldAddress",
          "type": "address"
        }
      ],
      "name": "UpdateUniswapRouter",
      "type": "event"
    },
    {
      "anonymous": false,
      "inputs": [
        {
          "indexed": true,
          "internalType": "address",
          "name": "newadminFundWallet",
          "type": "address"
        },
        {
          "indexed": true,
          "internalType": "address",
          "name": "oldadminFundWallet",
          "type": "address"
        }
      ],
      "name": "adminFundWalletUpdated",
      "type": "event"
    },
    {
      "inputs": [],
      "name": "adminFee",
      "outputs": [
        {
          "internalType": "uint256",
          "name": "",
          "type": "uint256"
        }
      ],
      "stateMutability": "view",
      "type": "function"
    },
    {
      "inputs": [],
      "name": "adminFundWallet",
      "outputs": [
        {
          "internalType": "address",
          "name": "",
          "type": "address"
        }
      ],
      "stateMutability": "view",
      "type": "function"
    },
    {
      "inputs": [],
      "name": "adminPortionOfSwap",
      "outputs": [
        {
          "internalType": "uint256",
          "name": "",
          "type": "uint256"
        }
      ],
      "stateMutability": "view",
      "type": "function"
    },
    {
      "inputs": [],
      "name": "collectedFeeTotal",
      "outputs": [
        {
          "internalType": "uint256",
          "name": "",
          "type": "uint256"
        }
      ],
      "stateMutability": "view",
      "type": "function"
    },
    {
      "inputs": [],
      "name": "lpFee",
      "outputs": [
        {
          "internalType": "uint256",
          "name": "",
          "type": "uint256"
        }
      ],
      "stateMutability": "view",
      "type": "function"
    },
    {
      "inputs": [],
      "name": "lpPortionOfSwap",
      "outputs": [
        {
          "internalType": "uint256",
          "name": "",
          "type": "uint256"
        }
      ],
      "stateMutability": "view",
      "type": "function"
    },
    {
      "inputs": [],
      "name": "marketingFee",
      "outputs": [
        {
          "internalType": "uint256",
          "name": "",
          "type": "uint256"
        }
      ],
      "stateMutability": "view",
      "type": "function"
    },
    {
      "inputs": [],
      "name": "marketingPortionOfSwap",
      "outputs": [
        {
          "internalType": "uint256",
          "name": "",
          "type": "uint256"
        }
      ],
      "stateMutability": "view",
      "type": "function"
    },
    {
      "inputs": [],
      "name": "marketingWallet",
      "outputs": [
        {
          "internalType": "address",
          "name": "",
          "type": "address"
        }
      ],
      "stateMutability": "view",
      "type": "function"
    },
    {
      "inputs": [],
      "name": "maxTxAmount",
      "outputs": [
        {
          "internalType": "uint256",
          "name": "",
          "type": "uint256"
        }
      ],
      "stateMutability": "view",
      "type": "function"
    },
    {
      "inputs": [],
      "name": "maxWalletBalance",
      "outputs": [
        {
          "internalType": "uint256",
          "name": "",
          "type": "uint256"
        }
      ],
      "stateMutability": "view",
      "type": "function"
    },
    {
      "inputs": [],
      "name": "owner",
      "outputs": [
        {
          "internalType": "address",
          "name": "",
          "type": "address"
        }
      ],
      "stateMutability": "view",
      "type": "function"
    },
    {
      "inputs": [],
      "name": "pair",
      "outputs": [
        {
          "internalType": "address",
          "name": "",
          "type": "address"
        }
      ],
      "stateMutability": "view",
      "type": "function"
    },
    {
      "inputs": [],
      "name": "renounceOwnership",
      "outputs": [],
      "stateMutability": "nonpayable",
      "type": "function"
    },
    {
      "inputs": [],
      "name": "router",
      "outputs": [
        {
          "internalType": "contract IUniswapV2Router02",
          "name": "",
          "type": "address"
        }
      ],
      "stateMutability": "view",
      "type": "function"
    },
    {
      "inputs": [],
      "name": "swapEnabled",
      "outputs": [
        {
          "internalType": "bool",
          "name": "",
          "type": "bool"
        }
      ],
      "stateMutability": "view",
      "type": "function"
    },
    {
      "inputs": [],
      "name": "swapTokensAtAmount",
      "outputs": [
        {
          "internalType": "uint256",
          "name": "",
          "type": "uint256"
        }
      ],
      "stateMutability": "view",
      "type": "function"
    },
    {
      "inputs": [],
      "name": "takeFeeEnabled",
      "outputs": [
        {
          "internalType": "bool",
          "name": "",
          "type": "bool"
        }
      ],
      "stateMutability": "view",
      "type": "function"
    },
    {
      "inputs": [],
      "name": "tradingIsEnabled",
      "outputs": [
        {
          "internalType": "bool",
          "name": "",
          "type": "bool"
        }
      ],
      "stateMutability": "view",
      "type": "function"
    },
    {
      "inputs": [
        {
          "internalType": "address",
          "name": "newOwner",
          "type": "address"
        }
      ],
      "name": "transferOwnership",
      "outputs": [],
      "stateMutability": "nonpayable",
      "type": "function"
    },
    {
      "stateMutability": "payable",
      "type": "receive"
    },
    {
      "inputs": [],
      "name": "name",
      "outputs": [
        {
          "internalType": "string",
          "name": "",
          "type": "string"
        }
      ],
      "stateMutability": "view",
      "type": "function"
    },
    {
      "inputs": [],
      "name": "symbol",
      "outputs": [
        {
          "internalType": "string",
          "name": "",
          "type": "string"
        }
      ],
      "stateMutability": "view",
      "type": "function"
    },
    {
      "inputs": [],
      "name": "decimals",
      "outputs": [
        {
          "internalType": "uint8",
          "name": "",
          "type": "uint8"
        }
      ],
      "stateMutability": "view",
      "type": "function"
    },
    {
      "inputs": [],
      "name": "totalSupply",
      "outputs": [
        {
          "internalType": "uint256",
          "name": "",
          "type": "uint256"
        }
      ],
      "stateMutability": "view",
      "type": "function"
    },
    {
      "inputs": [
        {
          "internalType": "address",
          "name": "account",
          "type": "address"
        }
      ],
      "name": "balanceOf",
      "outputs": [
        {
          "internalType": "uint256",
          "name": "",
          "type": "uint256"
        }
      ],
      "stateMutability": "view",
      "type": "function"
    },
    {
      "inputs": [
        {
          "internalType": "address",
          "name": "recipient",
          "type": "address"
        },
        {
          "internalType": "uint256",
          "name": "amount",
          "type": "uint256"
        }
      ],
      "name": "transfer",
      "outputs": [
        {
          "internalType": "bool",
          "name": "",
          "type": "bool"
        }
      ],
      "stateMutability": "nonpayable",
      "type": "function"
    },
    {
      "inputs": [
        {
          "internalType": "address",
          "name": "owner",
          "type": "address"
        },
        {
          "internalType": "address",
          "name": "spender",
          "type": "address"
        }
      ],
      "name": "allowance",
      "outputs": [
        {
          "internalType": "uint256",
          "name": "",
          "type": "uint256"
        }
      ],
      "stateMutability": "view",
      "type": "function"
    },
    {
      "inputs": [
        {
          "internalType": "address",
          "name": "spender",
          "type": "address"
        },
        {
          "internalType": "uint256",
          "name": "amount",
          "type": "uint256"
        }
      ],
      "name": "approve",
      "outputs": [
        {
          "internalType": "bool",
          "name": "",
          "type": "bool"
        }
      ],
      "stateMutability": "nonpayable",
      "type": "function"
    },
    {
      "inputs": [
        {
          "internalType": "address",
          "name": "sender",
          "type": "address"
        },
        {
          "internalType": "address",
          "name": "recipient",
          "type": "address"
        },
        {
          "internalType": "uint256",
          "name": "amount",
          "type": "uint256"
        }
      ],
      "name": "transferFrom",
      "outputs": [
        {
          "internalType": "bool",
          "name": "",
          "type": "bool"
        }
      ],
      "stateMutability": "nonpayable",
      "type": "function"
    },
    {
      "inputs": [
        {
          "internalType": "address",
          "name": "spender",
          "type": "address"
        },
        {
          "internalType": "uint256",
          "name": "addedValue",
          "type": "uint256"
        }
      ],
      "name": "increaseAllowance",
      "outputs": [
        {
          "internalType": "bool",
          "name": "",
          "type": "bool"
        }
      ],
      "stateMutability": "nonpayable",
      "type": "function"
    },
    {
      "inputs": [
        {
          "internalType": "address",
          "name": "spender",
          "type": "address"
        },
        {
          "internalType": "uint256",
          "name": "subtractedValue",
          "type": "uint256"
        }
      ],
      "name": "decreaseAllowance",
      "outputs": [
        {
          "internalType": "bool",
          "name": "",
          "type": "bool"
        }
      ],
      "stateMutability": "nonpayable",
      "type": "function"
    },
    {
      "inputs": [
        {
          "internalType": "address",
          "name": "account",
          "type": "address"
        },
        {
          "internalType": "bool",
          "name": "value",
          "type": "bool"
        }
      ],
      "name": "setExcludedFromFee",
      "outputs": [],
      "stateMutability": "nonpayable",
      "type": "function"
    },
    {
      "inputs": [
        {
          "internalType": "address",
          "name": "account",
          "type": "address"
        }
      ],
      "name": "isExcludedFromFee",
      "outputs": [
        {
          "internalType": "bool",
          "name": "",
          "type": "bool"
        }
      ],
      "stateMutability": "view",
      "type": "function"
    },
    {
      "inputs": [
        {
          "internalType": "bool",
          "name": "_enabled",
          "type": "bool"
        }
      ],
      "name": "setSwapEnabled",
      "outputs": [],
      "stateMutability": "nonpayable",
      "type": "function"
    },
    {
      "inputs": [
        {
          "internalType": "bool",
          "name": "_enabled",
          "type": "bool"
        }
      ],
      "name": "setFeeEnabled",
      "outputs": [],
      "stateMutability": "nonpayable",
      "type": "function"
    },
    {
      "inputs": [
        {
          "internalType": "uint256",
          "name": "_swaptokens",
          "type": "uint256"
        }
      ],
      "name": "updateSwapTokensAt",
      "outputs": [],
      "stateMutability": "nonpayable",
      "type": "function"
    },
    {
      "inputs": [
        {
          "internalType": "uint256",
          "name": "_walletMax",
          "type": "uint256"
        }
      ],
      "name": "updateWalletMax",
      "outputs": [],
      "stateMutability": "nonpayable",
      "type": "function"
    },
    {
      "inputs": [
        {
          "internalType": "uint256",
          "name": "_txMax",
          "type": "uint256"
        }
      ],
      "name": "updateTransactionMax",
      "outputs": [],
      "stateMutability": "nonpayable",
      "type": "function"
    },
    {
      "inputs": [
        {
          "internalType": "uint256",
          "name": "_marketingFee",
          "type": "uint256"
        },
        {
          "internalType": "uint256",
          "name": "_adminFundFee",
          "type": "uint256"
        },
        {
          "internalType": "uint256",
          "name": "_lpFee",
          "type": "uint256"
        }
      ],
      "name": "updateFees",
      "outputs": [],
      "stateMutability": "nonpayable",
      "type": "function"
    },
    {
      "inputs": [
        {
          "internalType": "address",
          "name": "newWallet",
          "type": "address"
        }
      ],
      "name": "updateMarketingWallet",
      "outputs": [],
      "stateMutability": "nonpayable",
      "type": "function"
    },
    {
      "inputs": [
        {
          "internalType": "address",
          "name": "newWallet",
          "type": "address"
        }
      ],
      "name": "updateAdminFundWallet",
      "outputs": [],
      "stateMutability": "nonpayable",
      "type": "function"
    },
    {
      "inputs": [
        {
          "internalType": "uint256",
          "name": "marketingPortion",
          "type": "uint256"
        },
        {
          "internalType": "uint256",
          "name": "adminProtion",
          "type": "uint256"
        },
        {
          "internalType": "uint256",
          "name": "lpPortion",
          "type": "uint256"
        }
      ],
      "name": "updatePortionsOfSwap",
      "outputs": [],
      "stateMutability": "nonpayable",
      "type": "function"
    },
    {
      "inputs": [
        {
          "internalType": "bool",
          "name": "tradingStatus",
          "type": "bool"
        }
      ],
      "name": "updateTradingIsEnabled",
      "outputs": [],
      "stateMutability": "nonpayable",
      "type": "function"
    },
    {
      "inputs": [
        {
          "internalType": "address",
          "name": "newAddress",
          "type": "address"
        }
      ],
      "name": "updateRouterAddress",
      "outputs": [],
      "stateMutability": "nonpayable",
      "type": "function"
    },
    {
      "inputs": [
        {
          "internalType": "address payable",
          "name": "recipient",
          "type": "address"
        },
        {
          "internalType": "uint256",
          "name": "amount",
          "type": "uint256"
        }
      ],
      "name": "swapTokensAndWithdrawInETH",
      "outputs": [],
      "stateMutability": "nonpayable",
      "type": "function"
    },
    {
      "inputs": [
        {
          "internalType": "address payable",
          "name": "recipient",
          "type": "address"
        }
      ],
      "name": "withdrawETH",
      "outputs": [],
      "stateMutability": "nonpayable",
      "type": "function"
    }
  ],
  "bytecode": "0x6080604052600b805463ffffffff191663010001011790556032600d556096600e556064600f55610683601155611388601255610d056013553480156200004557600080fd5b5060405162002fc438038062002fc48339810160408190526200006891620006c3565b62000073336200045d565b60018055600462000085878262000804565b50600562000094868262000804565b506006805460ff191660ff8616908117909155620000b490600a620009e5565b620000c09084620009fa565b6007819055600280546001600160a01b038086166001600160a01b031992831617909255600380549285169290911691909117905562000104906103e89062000a1c565b600955600754620001189060329062000a1c565b600a556006546200012f9060019060ff1662000a3f565b6200013c90600a62000a65565b62000149906001620009fa565b600c5560075460166000620001666000546001600160a01b031690565b6001600160a01b03168152602080820192909252604090810160002092909255601480546001600160a01b031916737a250d5630b4cf539739df2c5dacb4c659f2488d908117909155825163c45a015560e01b815292519092839263c45a0155926004808401938290030181865afa158015620001e7573d6000803e3d6000fd5b505050506040513d601f19601f820116820180604052508101906200020d919062000a76565b6001600160a01b031663c9c6539630601460009054906101000a90046001600160a01b03166001600160a01b031663ad5c46486040518163ffffffff1660e01b8152600401602060405180830381865afa15801562000270573d6000803e3d6000fd5b505050506040513d601f19601f8201168201806040525081019062000296919062000a76565b6040516001600160e01b031960e085901b1681526001600160a01b039283166004820152911660248201526044016020604051808303816000875af1158015620002e4573d6000803e3d6000fd5b505050506040513d601f19601f820116820180604052508101906200030a919062000a76565b601580546001600160a01b0319166001600160a01b0392909216919091179055600f54600e54600d546200033f919062000a94565b6200034b919062000a94565b601055600160186000620003676000546001600160a01b031690565b6001600160a01b0316815260208082019290925260409081016000908120805494151560ff199586161790553081526018909252902080549091166001179055620003d3620003be6000546001600160a01b031690565b6014546001600160a01b0316600019620004ad565b620003f430620003eb6000546001600160a01b031690565b600019620004ad565b6000546001600160a01b03166001600160a01b031660006001600160a01b03167fddf252ad1be2c89b69c2b068fc378daa952ba7f163c4a11628f55a4df523b3ef6007546040516200044891815260200190565b60405180910390a35050505050505062000aaf565b600080546001600160a01b038381166001600160a01b0319831681178455604051919092169283917f8be0079c531659141344cd1fd0a4f28419497f9722a3daafe3b4186f6b6457e09190a35050565b6001600160a01b038316620005155760405162461bcd60e51b8152602060048201526024808201527f45524332303a20417070726f76652066726f6d20746865207a65726f206164646044820152637265737360e01b60648201526084015b60405180910390fd5b6001600160a01b038216620005785760405162461bcd60e51b815260206004820152602260248201527f45524332303a20417070726f766520746f20746865207a65726f206164647265604482015261737360f01b60648201526084016200050c565b6001600160a01b0383811660008181526017602090815260408083209487168084529482529182902085905590518481527f8c5be1e5ebec7d5bd14f71427d1e84f3dd0314c0f7b2291e5b200ac8c7c3b925910160405180910390a3505050565b634e487b7160e01b600052604160045260246000fd5b600082601f8301126200060157600080fd5b81516001600160401b03808211156200061e576200061e620005d9565b604051601f8301601f19908116603f01168101908282118183101715620006495762000649620005d9565b816040528381526020925086838588010111156200066657600080fd5b600091505b838210156200068a57858201830151818301840152908201906200066b565b838211156200069c5760008385830101525b9695505050505050565b80516001600160a01b0381168114620006be57600080fd5b919050565b60008060008060008060c08789031215620006dd57600080fd5b86516001600160401b0380821115620006f557600080fd5b620007038a838b01620005ef565b975060208901519150808211156200071a57600080fd5b506200072989828a01620005ef565b955050604087015160ff811681146200074157600080fd5b606088015190945092506200075960808801620006a6565b91506200076960a08801620006a6565b90509295509295509295565b600181811c908216806200078a57607f821691505b602082108103620007ab57634e487b7160e01b600052602260045260246000fd5b50919050565b601f821115620007ff57600081815260208120601f850160051c81016020861015620007da5750805b601f850160051c820191505b81811015620007fb57828155600101620007e6565b5050505b505050565b81516001600160401b03811115620008205762000820620005d9565b620008388162000831845462000775565b84620007b1565b602080601f831160018114620008705760008415620008575750858301515b600019600386901b1c1916600185901b178555620007fb565b600085815260208120601f198616915b82811015620008a15788860151825594840194600190910190840162000880565b5085821015620008c05787850151600019600388901b60f8161c191681555b5050505050600190811b01905550565b634e487b7160e01b600052601160045260246000fd5b600181815b80851115620009275781600019048211156200090b576200090b620008d0565b808516156200091957918102915b93841c9390800290620008eb565b509250929050565b6000826200094057506001620009df565b816200094f57506000620009df565b8160018114620009685760028114620009735762000993565b6001915050620009df565b60ff841115620009875762000987620008d0565b50506001821b620009df565b5060208310610133831016604e8410600b8410161715620009b8575081810a620009df565b620009c48383620008e6565b8060001904821115620009db57620009db620008d0565b0290505b92915050565b6000620009f383836200092f565b9392505050565b600081600019048311821515161562000a175762000a17620008d0565b500290565b60008262000a3a57634e487b7160e01b600052601260045260246000fd5b500490565b600060ff821660ff84168082101562000a5c5762000a5c620008d0565b90039392505050565b6000620009f360ff8416836200092f565b60006020828403121562000a8957600080fd5b620009f382620006a6565b6000821982111562000aaa5762000aaa620008d0565b500190565b6125058062000abf6000396000f3fe6080604052600436106102805760003560e01c806376f1a6491161014f578063a9059cbb116100c1578063cccc20521161007a578063cccc205214610763578063dd62ed3e14610783578063e01af92c146107c9578063e2f45605146107e9578063f2fde38b146107ff578063f887ea401461081f57600080fd5b8063a9059cbb146106c1578063aacebbe3146106e1578063b225d4b714610701578063b7e9114e14610721578063bbde77c114610737578063cbf7e8881461074d57600080fd5b806391053d941161011357806391053d941461061657806395d89b41146106365780639a2de6431461064b578063a0be06f91461066b578063a457c2d714610681578063a8aa1b31146106a157600080fd5b806376f1a6491461058c57806379c4903c146105ac5780637d8dbe24146105c25780638c0b5e22146105e25780638da5cb5b146105f857600080fd5b8063450dde46116101f35780636b67c4df116101ac5780636b67c4df146104d25780636ddd1713146104e8578063704ce43e1461050957806370a082311461051f578063715018a61461053f57806375f0a8741461055457600080fd5b8063450dde461461040957806347614988146104235780635342acb414610443578063589d89dc1461047c5780636612e66f14610492578063690d8320146104b257600080fd5b80631264c9c4116102455780631264c9c41461034857806318160ddd14610368578063224290851461038757806323b872dd146103a7578063313ce567146103c757806339509351146103e957600080fd5b8062e6be7b1461028c57806306fdde03146102ae578063095ea7b3146102d957806309c58fcd146103095780630db474fa1461032857600080fd5b3661028757005b600080fd5b34801561029857600080fd5b506102ac6102a73660046120b2565b61083f565b005b3480156102ba57600080fd5b506102c3610948565b6040516102d091906120d6565b60405180910390f35b3480156102e557600080fd5b506102f96102f436600461212b565b6109da565b60405190151581526020016102d0565b34801561031557600080fd5b50600b546102f990610100900460ff1681565b34801561033457600080fd5b506102ac61034336600461216c565b6109f0565b34801561035457600080fd5b506102ac61036336600461216c565b610a0b565b34801561037457600080fd5b506007545b6040519081526020016102d0565b34801561039357600080fd5b506102ac6103a2366004612187565b610a2d565b3480156103b357600080fd5b506102f96103c23660046121b3565b610ae2565b3480156103d357600080fd5b5060065460405160ff90911681526020016102d0565b3480156103f557600080fd5b506102f961040436600461212b565b610bb8565b34801561041557600080fd5b50600b546102f99060ff1681565b34801561042f57600080fd5b506102ac61043e36600461212b565b610bef565b34801561044f57600080fd5b506102f961045e3660046120b2565b6001600160a01b031660009081526018602052604090205460ff1690565b34801561048857600080fd5b5061037960085481565b34801561049e57600080fd5b506102ac6104ad3660046121f4565b610cf9565b3480156104be57600080fd5b506102ac6104cd3660046120b2565b610d60565b3480156104de57600080fd5b50610379600d5481565b3480156104f457600080fd5b50600b546102f9906301000000900460ff1681565b34801561051557600080fd5b50610379600f5481565b34801561052b57600080fd5b5061037961053a3660046120b2565b610e2e565b34801561054b57600080fd5b506102ac610e49565b34801561056057600080fd5b50600254610574906001600160a01b031681565b6040516001600160a01b0390911681526020016102d0565b34801561059857600080fd5b50600354610574906001600160a01b031681565b3480156105b857600080fd5b5061037960115481565b3480156105ce57600080fd5b506102ac6105dd366004612229565b610e5d565b3480156105ee57600080fd5b5061037960095481565b34801561060457600080fd5b506000546001600160a01b0316610574565b34801561062257600080fd5b506102ac610631366004612229565b610e6a565b34801561064257600080fd5b506102c3610e77565b34801561065757600080fd5b506102ac6106663660046120b2565b610e86565b34801561067757600080fd5b50610379600e5481565b34801561068d57600080fd5b506102f961069c36600461212b565b610f90565b3480156106ad57600080fd5b50601554610574906001600160a01b031681565b3480156106cd57600080fd5b506102f96106dc36600461212b565b611053565b3480156106ed57600080fd5b506102ac6106fc3660046120b2565b611060565b34801561070d57600080fd5b506102ac61071c366004612229565b611169565b34801561072d57600080fd5b5061037960125481565b34801561074357600080fd5b50610379600a5481565b34801561075957600080fd5b5061037960135481565b34801561076f57600080fd5b506102ac61077e366004612187565b611176565b34801561078f57600080fd5b5061037961079e366004612242565b6001600160a01b03918216600090815260176020908152604080832093909416825291909152205490565b3480156107d557600080fd5b506102ac6107e436600461216c565b61121d565b3480156107f557600080fd5b50610379600c5481565b34801561080b57600080fd5b506102ac61081a3660046120b2565b611243565b34801561082b57600080fd5b50601454610574906001600160a01b031681565b6108476112bc565b806001600160a01b0381166108775760405162461bcd60e51b815260040161086e9061227b565b60405180910390fd5b6014546001600160a01b03908116908316036108ea5760405162461bcd60e51b815260206004820152602c60248201527f4d79546f6b656e3a2054686520726f7574657220616c7265616479206861732060448201526b74686174206164647265737360a01b606482015260840161086e565b6014546040516001600160a01b03918216918416907fb6bf376037f707ef439f1e5e56d7987d6b0c55798fe21ff475fd00b1f37ed92090600090a350601480546001600160a01b0319166001600160a01b0392909216919091179055565b606060048054610957906122c3565b80601f0160208091040260200160405190810160405280929190818152602001828054610983906122c3565b80156109d05780601f106109a5576101008083540402835291602001916109d0565b820191906000526020600020905b8154815290600101906020018083116109b357829003601f168201915b5050505050905090565b60006109e7338484611316565b50600192915050565b6109f86112bc565b600b805460ff1916911515919091179055565b610a136112bc565b600b80549115156101000261ff0019909216919091179055565b610a356112bc565b80610a408385612313565b610a4a9190612313565b60108190556127101015610ad45760405162461bcd60e51b8152602060048201526044602482018190527f4d79546f6b656e3a20546f74616c20466565732063616e6e6f74206265206772908201527f6561746572207468616e203130303030202831303025292831353030203d20316064820152632e35252960e01b608482015260a40161086e565b600d92909255600e55600f55565b6000610aef84848461143a565b6001600160a01b0384166000908152601760209081526040808320338452909152902054821115610b735760405162461bcd60e51b815260206004820152602860248201527f45524332303a205472616e7366657220616d6f756e74206578636565647320616044820152676c6c6f77616e636560c01b606482015260840161086e565b6001600160a01b038416600090815260176020908152604080832033808552925290912054610bae918691610ba990869061232b565b611316565b5060019392505050565b3360008181526017602090815260408083206001600160a01b038716845290915281205490916109e7918590610ba9908690612313565b610bf76112bc565b6001600160a01b038216610c1d5760405162461bcd60e51b815260040161086e90612342565b80610c2730610e2e565b1015610c815760405162461bcd60e51b8152602060048201526024808201527f4d79546f6b656e3a205377617020616d6f756e7420657863656564732062616c604482015263616e636560e01b606482015260840161086e565b47610c8b82611841565b6000610c97824761232b565b905060008111610ce95760405162461bcd60e51b815260206004820152601d60248201527f4d79546f6b656e3a205a65726f2045544820746f207472616e73666572000000604482015260640161086e565b610cf384826119d4565b50505050565b610d016112bc565b6001600160a01b038216600081815260186020908152604091829020805460ff191685151590811790915591519182527f9d8f7706ea1113d1a167b526eca956215946dd36cc7df39eb16180222d8b5df7910160405180910390a25050565b610d686112bc565b6001600160a01b038116610d8e5760405162461bcd60e51b815260040161086e90612342565b6000816001600160a01b03164760405160006040518083038185875af1925050503d8060008114610ddb576040519150601f19603f3d011682016040523d82523d6000602084013e610de0565b606091505b5050905080610e2a5760405162461bcd60e51b815260206004820152601660248201527508cc2d2d8cac840e8de40e8e4c2dce6cccae4408aa8960531b604482015260640161086e565b5050565b6001600160a01b031660009081526016602052604090205490565b610e516112bc565b610e5b6000611aed565b565b610e656112bc565b600955565b610e726112bc565b600a55565b606060058054610957906122c3565b610e8e6112bc565b806001600160a01b038116610eb55760405162461bcd60e51b815260040161086e9061227b565b6003546001600160a01b0390811690831603610f325760405162461bcd60e51b815260206004820152603660248201527f4d79546f6b656e3a205468652041646d696e2046756e642077616c6c657420696044820152757320616c72656164792074686973206164647265737360501b606482015260840161086e565b6003546040516001600160a01b03918216918416907f5854a7b6f4c8e91ac15c54a958d59214136ecd8d7f8a83c3d32eb98ea5949fd390600090a350600380546001600160a01b0319166001600160a01b0392909216919091179055565b3360009081526017602090815260408083206001600160a01b03861684529091528120548190610fc190849061232b565b101561101d5760405162461bcd60e51b815260206004820152602560248201527f45524332303a2044656372656173656420616c6c6f77616e63652062656c6f77604482015264207a65726f60d81b606482015260840161086e565b3360008181526017602090815260408083206001600160a01b03881684529091529020546109e791908590610ba990869061232b565b60006109e733848461143a565b6110686112bc565b806001600160a01b03811661108f5760405162461bcd60e51b815260040161086e9061227b565b6002546001600160a01b039081169083160361110b5760405162461bcd60e51b815260206004820152603560248201527f4d79546f6b656e3a20546865204d61726b6574696e672077616c6c657420697360448201527420616c72656164792074686973206164647265737360581b606482015260840161086e565b6002546040516001600160a01b03918216918416907f8616c7a330e3cf61290821331585511f1e2778171e2b005fb5ec60cfe874dc6790600090a350600280546001600160a01b0319166001600160a01b0392909216919091179055565b6111716112bc565b600c55565b61117e6112bc565b60008161118b8486612313565b6111959190612313565b9050806127101461120e5760405162461bcd60e51b815260206004820152603960248201527f4d79546f6b656e3a20546f74616c206d75737420626520657175616c20746f2060448201527f3130303030202831303025292831353030203d20312e35252900000000000000606482015260840161086e565b50601192909255601255601355565b6112256112bc565b600b805491151563010000000263ff00000019909216919091179055565b61124b6112bc565b6001600160a01b0381166112b05760405162461bcd60e51b815260206004820152602660248201527f4f776e61626c653a206e6577206f776e657220697320746865207a65726f206160448201526564647265737360d01b606482015260840161086e565b6112b981611aed565b50565b6000546001600160a01b03163314610e5b5760405162461bcd60e51b815260206004820181905260248201527f4f776e61626c653a2063616c6c6572206973206e6f7420746865206f776e6572604482015260640161086e565b6001600160a01b0383166113785760405162461bcd60e51b8152602060048201526024808201527f45524332303a20417070726f76652066726f6d20746865207a65726f206164646044820152637265737360e01b606482015260840161086e565b6001600160a01b0382166113d95760405162461bcd60e51b815260206004820152602260248201527f45524332303a20417070726f766520746f20746865207a65726f206164647265604482015261737360f01b606482015260840161086e565b6001600160a01b0383811660008181526017602090815260408083209487168084529482529182902085905590518481527f8c5be1e5ebec7d5bd14f71427d1e84f3dd0314c0f7b2291e5b200ac8c7c3b925910160405180910390a3505050565b6001600160a01b03831661149e5760405162461bcd60e51b815260206004820152602560248201527f45524332303a205472616e736665722066726f6d20746865207a65726f206164604482015264647265737360d81b606482015260840161086e565b6001600160a01b0382166115005760405162461bcd60e51b815260206004820152602360248201527f45524332303a205472616e7366657220746f20746865207a65726f206164647260448201526265737360e81b606482015260840161086e565b600081116115695760405162461bcd60e51b815260206004820152603060248201527f45524332303a205472616e7366657220616d6f756e74206d757374206265206760448201526f726561746572207468616e207a65726f60801b606482015260840161086e565b8061157384610e2e565b10156115d05760405162461bcd60e51b815260206004820152602660248201527f45524332303a205472616e7366657220616d6f756e7420657863656564732062604482015265616c616e636560d01b606482015260840161086e565b600b54610100900460ff166116575760405162461bcd60e51b815260206004820152604160248201527f4d79546f6b656e3a2054686973206163636f756e742063616e6e6f742073656e60448201527f6420746f6b656e7320756e74696c2074726164696e6720697320656e61626c656064820152601960fa1b608482015260a40161086e565b6014546001600160a01b038481169116146116e4576009548111156116e45760405162461bcd60e51b815260206004820152603b60248201527f4d79546f6b656e3a205472616e7366657220616d6f756e74206578636565647360448201527f20746865204d6178205472616e73616374696f6e20416d6f756e740000000000606482015260840161086e565b6000600a5411801561170f57506001600160a01b03821660009081526018602052604090205460ff16155b801561173457506001600160a01b03831660009081526018602052604090205460ff16155b801561174e57506015546001600160a01b03838116911614155b156117dd57600061175e83610e2e565b600a5490915061176e8383612313565b11156117db5760405162461bcd60e51b815260206004820152603660248201527f4d79546f6b656e3a204e65772062616c616e636520776f756c642065786365656044820152756420746865206d617857616c6c657442616c616e636560501b606482015260840161086e565b505b600b546001600160a01b03841660009081526018602052604090205460ff91821691168061182357506001600160a01b03831660009081526018602052604090205460ff165b1561182c575060005b61183584611b3d565b610cf384848484611bef565b60408051600280825260608201835260009260208301908036833701905050905030816000815181106118765761187661238c565b6001600160a01b03928316602091820292909201810191909152601454604080516315ab88c960e31b81529051919093169263ad5c46489260048083019391928290030181865afa1580156118cf573d6000803e3d6000fd5b505050506040513d601f19601f820116820180604052508101906118f391906123a2565b816001815181106119065761190661238c565b6001600160a01b03928316602091820292909201015260145461192c9130911684611316565b60145460405163791ac94760e01b81526001600160a01b039091169063791ac94790611965908590600090869030904290600401612403565b600060405180830381600087803b15801561197f57600080fd5b505af1158015611993573d6000803e3d6000fd5b505050507f32cde87eb454f3a0b875ab23547023107cfad454363ec88ba5695e2c24aa52a782826040516119c892919061243f565b60405180910390a15050565b6001600160a01b038216611a455760405162461bcd60e51b815260206004820152603260248201527f4d79546f6b656e3a2043616e6e6f74207472616e73666572207468652045544860448201527120746f2061207a65726f206164647265737360701b606482015260840161086e565b6000826001600160a01b03168260405160006040518083038185875af1925050503d8060008114611a92576040519150601f19603f3d011682016040523d82523d6000602084013e611a97565b606091505b5050905080611ae85760405162461bcd60e51b815260206004820152601f60248201527f4d79546f6b656e3a204661696c656420746f207472616e736665722045544800604482015260640161086e565b505050565b600080546001600160a01b038381166001600160a01b0319831681178455604051919092169283917f8be0079c531659141344cd1fd0a4f28419497f9722a3daafe3b4186f6b6457e09190a35050565b6000611b4830610e2e565b600c54600b5491925082119060009062010000900460ff16158015611b6a5750815b8015611b7f5750600b546301000000900460ff165b6015549091506000906001600160a01b03868116911614801590611bb157506014546001600160a01b03868116911614155b9050818015611bbd5750805b15611be857600b805462ff0000191662010000179055611bdb611d0b565b600b805462ff0000191690555b5050505050565b6010546015546001600160a01b03868116911614801590611c1e57506015546001600160a01b03858116911614155b15611c27575060005b81611c30575060005b6001600160a01b038516600090815260166020526040902054611c5490849061232b565b6001600160a01b0386166000908152601660205260409020558015611c8457611c7f85858584611e1c565b611be8565b6001600160a01b038416600090815260166020526040902054611ca8908490612313565b6001600160a01b0380861660008181526016602052604090819020939093559151908716907fddf252ad1be2c89b69c2b068fc378daa952ba7f163c4a11628f55a4df523b3ef90611cfc9087815260200190565b60405180910390a35050505050565b611d13611eeb565b60006002601354611d249190612460565b9050600061271082611d3530610e2e565b611d3f9190612482565b611d499190612460565b9050600081611d5730610e2e565b611d61919061232b565b905047611d6d82611841565b6000611d79824761232b565b9050600061271060115483611d8e9190612482565b611d989190612460565b9050600061271060125484611dad9190612482565b611db79190612460565b90506000612710611dc88986612482565b611dd29190612460565b600254909150611deb906001600160a01b0316846119d4565b600354611e01906001600160a01b0316836119d4565b611e0b8782611f44565b5050505050505050610e5b60018055565b600080611e298484612068565b6001600160a01b0387166000908152601660205260409020549193509150611e52908390612313565b6001600160a01b038616600090815260166020526040808220929092553081522054611e7f908290612313565b30600090815260166020526040902055600854611e9d908290612313565b6008556040518281526001600160a01b0380871691908816907fddf252ad1be2c89b69c2b068fc378daa952ba7f163c4a11628f55a4df523b3ef9060200160405180910390a3505050505050565b600260015403611f3d5760405162461bcd60e51b815260206004820152601f60248201527f5265656e7472616e637947756172643a207265656e7472616e742063616c6c00604482015260640161086e565b6002600155565b601454611f5c9030906001600160a01b031684611316565b601454600090819081906001600160a01b031663f305d7198530888580611f8b6000546001600160a01b031690565b60405160e088901b6001600160e01b03191681526001600160a01b03958616600482015260248101949094526044840192909252606483015290911660848201524260a482015260c40160606040518083038185885af1158015611ff3573d6000803e3d6000fd5b50505050506040513d601f19601f8201168201806040525081019061201891906124a1565b604080518481526020810184905290810182905292955090935091507fd7f28048575eead8851d024ead087913957dfb4fd1a02b4d1573f5352a5a2be39060600160405180910390a15050505050565b600080806127106120798587612482565b6120839190612460565b90506000612091828761232b565b96919550909350505050565b6001600160a01b03811681146112b957600080fd5b6000602082840312156120c457600080fd5b81356120cf8161209d565b9392505050565b600060208083528351808285015260005b81811015612103578581018301518582016040015282016120e7565b81811115612115576000604083870101525b50601f01601f1916929092016040019392505050565b6000806040838503121561213e57600080fd5b82356121498161209d565b946020939093013593505050565b8035801515811461216757600080fd5b919050565b60006020828403121561217e57600080fd5b6120cf82612157565b60008060006060848603121561219c57600080fd5b505081359360208301359350604090920135919050565b6000806000606084860312156121c857600080fd5b83356121d38161209d565b925060208401356121e38161209d565b929592945050506040919091013590565b6000806040838503121561220757600080fd5b82356122128161209d565b915061222060208401612157565b90509250929050565b60006020828403121561223b57600080fd5b5035919050565b6000806040838503121561225557600080fd5b82356122608161209d565b915060208301356122708161209d565b809150509250929050565b60208082526028908201527f45524332303a416464726573732063616e6e6f7420626520746865207a65726f604082015267206164647265737360c01b606082015260800190565b600181811c908216806122d757607f821691505b6020821081036122f757634e487b7160e01b600052602260045260246000fd5b50919050565b634e487b7160e01b600052601160045260246000fd5b60008219821115612326576123266122fd565b500190565b60008282101561233d5761233d6122fd565b500390565b6020808252602a908201527f4d79546f6b656e3a2043616e6e6f7420776974686472617720746f2061207a65604082015269726f206164647265737360b01b606082015260800190565b634e487b7160e01b600052603260045260246000fd5b6000602082840312156123b457600080fd5b81516120cf8161209d565b600081518084526020808501945080840160005b838110156123f85781516001600160a01b0316875295820195908201906001016123d3565b509495945050505050565b85815284602082015260a06040820152600061242260a08301866123bf565b6001600160a01b0394909416606083015250608001529392505050565b82815260406020820152600061245860408301846123bf565b949350505050565b60008261247d57634e487b7160e01b600052601260045260246000fd5b500490565b600081600019048311821515161561249c5761249c6122fd565b500290565b6000806000606084860312156124b657600080fd5b835192506020840151915060408401519050925092509256fea2646970667358221220037d8e1d4f165286350d5ee92609bfa316fe15db646612a1b0e68a8bcfe9125364736f6c634300080f0033",
  "immutableReferences": {},
  "source": "/**\n * SPDX-License-Identifier: MIT\n */\n\npragma solidity 0.8.15;\n\nimport '@openzeppelin/contracts/token/ERC20/IERC20.sol';\nimport '@openzeppelin/contracts/token/ERC20/extensions/IERC20Metadata.sol';\nimport '@openzeppelin/contracts/access/Ownable.sol';\nimport '@openzeppelin/contracts/security/ReentrancyGuard.sol';\n\nimport '@uniswap/v2-core/contracts/interfaces/IUniswapV2Factory.sol';\nimport '@uniswap/v2-core/contracts/interfaces/IUniswapV2Pair.sol';\nimport '@uniswap/v2-periphery/contracts/interfaces/IUniswapV2Router02.sol';\n\n/**\n * @title ERC20 Token\n * Custom ERC20 token with fee on Uniswap Buy and Sell\n */\ncontract MyToken is IERC20Metadata, Ownable, ReentrancyGuard {\n  ///To send fee from transactions\n  address public marketingWallet;\n  address public adminFundWallet;\n\n  string private _name;\n  string private _symbol;\n  uint8 private _decimals;\n  uint256 private _totalSupply;\n\n  uint256 private constant MAX = ~uint256(0);\n\n  uint256 public collectedFeeTotal;\n  uint256 public maxTxAmount; /// 0.1% of the total supply\n  uint256 public maxWalletBalance; /// 2% of the total supply\n\n  bool public takeFeeEnabled = true;\n  bool public tradingIsEnabled = true;\n  bool private swapping = false;\n  bool public swapEnabled = true;\n\n  ///Collected fee will transfered to corresponding wallets only if it reaches this amount\n  uint256 public swapTokensAtAmount; //0.1 token\n\n  uint256 private constant FEES_DIVISOR = 10 ** 4;\n\n  uint256 public marketingFee = 50; ///0.5%\n  uint256 public adminFee = 150; ///1.5%\n  uint256 public lpFee = 100; ///1%\n  uint256 private totalFee;\n\n  uint256 public marketingPortionOfSwap = 1667; /// 16.67%\n  uint256 public adminPortionOfSwap = 5000; /// 50%\n  uint256 public lpPortionOfSwap = 3333; /// 33.33%\n\n  IUniswapV2Router02 public router;\n  address public pair;\n\n  mapping(address => uint256) internal _balances;\n  mapping(address => mapping(address => uint256)) internal _allowances;\n  mapping(address => bool) internal _isExcludedFromFee;\n\n  event UpdateUniswapRouter(address indexed newAddress, address indexed oldAddress);\n  event ExcludeFromFees(address indexed account, bool isExcluded);\n  event MarketingWalletUpdated(\n    address indexed newMarketingWallet,\n    address indexed oldMarketingWallet\n  );\n  event adminFundWalletUpdated(\n    address indexed newadminFundWallet,\n    address indexed oldadminFundWallet\n  );\n  event LiquidityAdded(uint256 tokenAmountSent, uint256 ethAmountSent, uint256 liquidity);\n  event SwapTokensForETH(uint256 amountIn, address[] path);\n\n  modifier zeroAddressCheck(address _theAddress) {\n    require(_theAddress != address(0), 'ERC20:Address cannot be the zero address');\n    _;\n  }\n\n  /**\n   * @dev Constructor\n   * @param name_ ERC20 Token name\n   * @param symbol_ ERC20 Token symbol\n   * @param marketingWallet_ Wallet to collect marketing fee\n   * @param adminFundWallet_ Wallet to collect admin fund\n   */\n  constructor(\n    string memory name_,\n    string memory symbol_,\n    uint8 decimals_,\n    uint256 totalSupply_,\n    address marketingWallet_,\n    address adminFundWallet_\n  ) {\n    ///Initial setup\n    _name = name_;\n    _symbol = symbol_;\n    _decimals = decimals_;\n    _totalSupply = totalSupply_ * (10 ** uint256(decimals_));\n    marketingWallet = marketingWallet_;\n    adminFundWallet = adminFundWallet_;\n\n    maxTxAmount = _totalSupply / 1000; /// 0.1% of the total supply\n    maxWalletBalance = _totalSupply / 50; /// 2% of the total supply\n    swapTokensAtAmount = 1 * (10 ** (_decimals - 1)); //0.1 token\n\n    ///Initial allocation of tokens to owner\n    _balances[owner()] = _totalSupply;\n\n    ///Creating TOKEN-WETH uniswap pair\n    address UNISWAP_V2_ROUTER02 = 0x7a250d5630B4cF539739dF2C5dAcb4c659F2488D;\n    router = IUniswapV2Router02(UNISWAP_V2_ROUTER02);\n    pair = IUniswapV2Factory(router.factory()).createPair(address(this), router.WETH());\n\n    /// Set fees\n    totalFee = marketingFee + adminFee + lpFee;\n\n    /// Exclude owner and this contract from fee\n    _isExcludedFromFee[owner()] = true;\n    _isExcludedFromFee[address(this)] = true;\n\n    /// Giving approvals for smooth uniswap operations\n    _approve(owner(), address(router), ~uint256(0));\n    _approve(address(this), owner(), ~uint256(0));\n\n    emit Transfer(address(0), owner(), _totalSupply);\n  }\n\n  /**\n   * @dev Function to receive ETH when sending fee and adding liquidity\n   */\n  receive() external payable {}\n\n  /**\n   * @dev Function to get name\n   * @return name ERC20 Token name\n   */\n  function name() external view override returns (string memory) {\n    return _name;\n  }\n\n  /**\n   * @dev Function to get symbol\n   * @return symbol ERC20 Token symbol\n   */\n  function symbol() external view override returns (string memory) {\n    return _symbol;\n  }\n\n  /**\n   * @dev Function to get decimals\n   * @return decimals ERC20 Token decimals\n   */\n  function decimals() external view override returns (uint8) {\n    return _decimals;\n  }\n\n  /**\n   * @dev Function to get totalSupply\n   * @return totalSupply ERC20 Token totalSupply\n   */\n  function totalSupply() external view override returns (uint256) {\n    return _totalSupply;\n  }\n\n  /**\n   * @dev Function to get token balance\n   * @param account Address\n   * @return balance Current balance\n   */\n  function balanceOf(address account) public view override returns (uint256) {\n    return _balances[account];\n  }\n\n  /**\n   * @dev Function to get transfer tokens\n   * @param recipient Address\n   * @param amount Amount to transfer\n   * @return bool Transaction status\n   */\n  function transfer(address recipient, uint256 amount) external override returns (bool) {\n    _transfer(_msgSender(), recipient, amount);\n    return true;\n  }\n\n  /**\n   * @dev Function to check token allowance\n   * @param owner Address\n   * @param spender Address\n   * @return allowance Current token allowance\n   */\n  function allowance(address owner, address spender) external view override returns (uint256) {\n    return _allowances[owner][spender];\n  }\n\n  /**\n   * @dev Function to give allowance\n   * @param spender Address\n   * @param amount Amount\n   * @return bool Status\n   */\n  function approve(address spender, uint256 amount) external override returns (bool) {\n    _approve(_msgSender(), spender, amount);\n    return true;\n  }\n\n  /**\n   * @dev Function to transfer token from allowance\n   * @param sender Address\n   * @param recipient Address\n   * @param amount Amount\n   * @return bool Status\n   */\n  function transferFrom(\n    address sender,\n    address recipient,\n    uint256 amount\n  ) external override returns (bool) {\n    _transfer(sender, recipient, amount);\n    require(\n      _allowances[sender][_msgSender()] >= amount,\n      'ERC20: Transfer amount exceeds allowance'\n    );\n    _approve(sender, _msgSender(), _allowances[sender][_msgSender()] - amount);\n    return true;\n  }\n\n  /**\n   * @dev Function to increase allowance\n   * @param spender Address\n   * @param addedValue Amount to increase\n   * @return bool Status\n   */\n  function increaseAllowance(address spender, uint256 addedValue) external virtual returns (bool) {\n    _approve(_msgSender(), spender, _allowances[_msgSender()][spender] + addedValue);\n    return true;\n  }\n\n  /**\n   * @dev Function to decrease allowance\n   * @param spender Address\n   * @param subtractedValue Amount to decrease\n   * @return bool Status\n   */\n  function decreaseAllowance(\n    address spender,\n    uint256 subtractedValue\n  ) external virtual returns (bool) {\n    require(\n      _allowances[_msgSender()][spender] - subtractedValue >= 0,\n      'ERC20: Decreased allowance below zero'\n    );\n    _approve(_msgSender(), spender, _allowances[_msgSender()][spender] - subtractedValue);\n    return true;\n  }\n\n  /**\n   * @dev Internal function to give allowance\n   * @param owner Address\n   * @param spender Address\n   * @param amount Amount\n   */\n  function _approve(address owner, address spender, uint256 amount) internal {\n    require(owner != address(0), 'ERC20: Approve from the zero address');\n    require(spender != address(0), 'ERC20: Approve to the zero address');\n\n    _allowances[owner][spender] = amount;\n    emit Approval(owner, spender, amount);\n  }\n\n  /**\n   * @dev To whitelist addresses from fee uniswap buy and sell\n   * @param account Address\n   * @param value Bool\n   */\n  function setExcludedFromFee(address account, bool value) external onlyOwner {\n    _isExcludedFromFee[account] = value;\n    emit ExcludeFromFees(account, value);\n  }\n\n  /**\n   * @dev To check if the address is whitelisted\n   * @param account Address\n   */\n  function isExcludedFromFee(address account) external view returns (bool) {\n    return _isExcludedFromFee[account];\n  }\n\n  /**\n   * @dev To enable uniswap buy and sell\n   * @param _enabled Bool\n   */\n  function setSwapEnabled(bool _enabled) external onlyOwner {\n    swapEnabled = _enabled;\n  }\n\n  /**\n   * @dev To enable fee on uniswap buy and sell\n   * @param _enabled Bool\n   */\n  function setFeeEnabled(bool _enabled) external onlyOwner {\n    takeFeeEnabled = _enabled;\n  }\n\n  /**\n   * @dev To update fee transfering token amount\n   * @param _swaptokens Amount\n   */\n  function updateSwapTokensAt(uint256 _swaptokens) external onlyOwner {\n    swapTokensAtAmount = _swaptokens;\n  }\n\n  /**\n   * @dev To update maximum wallet balance\n   * @param _walletMax Amount\n   */\n  function updateWalletMax(uint256 _walletMax) external onlyOwner {\n    maxWalletBalance = _walletMax;\n  }\n\n  /**\n   * @dev To update maximum transaction limit\n   * @param _txMax Amount\n   */\n  function updateTransactionMax(uint256 _txMax) external onlyOwner {\n    maxTxAmount = _txMax;\n  }\n\n  /**\n   * @dev To update fee percentages. Must be given as percentage * 100\n   * @param _marketingFee Marketing fee\n   * @param _adminFundFee Admin Fund Fee\n   * @param _lpFee Liquidity Fee\n   */\n  function updateFees(\n    uint256 _marketingFee,\n    uint256 _adminFundFee,\n    uint256 _lpFee\n  ) external onlyOwner {\n    totalFee = _marketingFee + _adminFundFee + _lpFee;\n    require(\n      totalFee <= 10000,\n      'MyToken: Total Fees cannot be greater than 10000 (100%)(1500 = 1.5%)'\n    );\n\n    marketingFee = _marketingFee;\n    adminFee = _adminFundFee;\n    lpFee = _lpFee;\n  }\n\n  /**\n   * @dev To update marketing fee wallet address\n   * @param newWallet Address\n   */\n  function updateMarketingWallet(address newWallet) external onlyOwner zeroAddressCheck(newWallet) {\n    require(newWallet != marketingWallet, 'MyToken: The Marketing wallet is already this address');\n    emit MarketingWalletUpdated(newWallet, marketingWallet);\n\n    marketingWallet = newWallet;\n  }\n\n  /**\n   * @dev To update admin fund fee wallet address\n   * @param newWallet Address\n   */\n  function updateAdminFundWallet(address newWallet) external onlyOwner zeroAddressCheck(newWallet) {\n    require(newWallet != adminFundWallet, 'MyToken: The Admin Fund wallet is already this address');\n    emit adminFundWalletUpdated(newWallet, adminFundWallet);\n\n    adminFundWallet = newWallet;\n  }\n\n  /**\n   * @dev To update splitting amount of total fee. Must be given as percentage * 100\n   * @param marketingPortion Marketing fee\n   * @param adminProtion Admin Fund Fee\n   * @param lpPortion Liquidity Fee\n   */\n  function updatePortionsOfSwap(\n    uint256 marketingPortion,\n    uint256 adminProtion,\n    uint256 lpPortion\n  ) external onlyOwner {\n    uint256 totalPortion = marketingPortion + adminProtion + lpPortion;\n    require(totalPortion == 10000, 'MyToken: Total must be equal to 10000 (100%)(1500 = 1.5%)');\n\n    marketingPortionOfSwap = marketingPortion;\n    adminPortionOfSwap = adminProtion;\n    lpPortionOfSwap = lpPortion;\n  }\n\n  /**\n   * @dev To enable and disable token transactions\n   * @param tradingStatus Bool\n   */\n  function updateTradingIsEnabled(bool tradingStatus) external onlyOwner {\n    tradingIsEnabled = tradingStatus;\n  }\n\n  /**\n   * @dev To update uniswap router address\n   * @param newAddress Router address\n   */\n  function updateRouterAddress(address newAddress) external onlyOwner zeroAddressCheck(newAddress) {\n    require(newAddress != address(router), 'MyToken: The router already has that address');\n    emit UpdateUniswapRouter(newAddress, address(router));\n\n    router = IUniswapV2Router02(newAddress);\n  }\n\n  /**\n   * @dev Internal function for token transfer. Deducting and transferring of fee will also triggered from here.\n   * @param sender Address\n   * @param recipient Address\n   * @param amount Amount to transfer\n   */\n  function _transfer(address sender, address recipient, uint256 amount) private {\n    require(sender != address(0), 'ERC20: Transfer from the zero address');\n    require(recipient != address(0), 'ERC20: Transfer to the zero address');\n    require(amount > 0, 'ERC20: Transfer amount must be greater than zero');\n    require(balanceOf(sender) >= amount, 'ERC20: Transfer amount exceeds balance');\n    require(tradingIsEnabled, 'MyToken: This account cannot send tokens until trading is enabled');\n\n    ///router -> pair is adding liquidity which shouldn't have max\n    if (sender != address(router)) {\n      require(amount <= maxTxAmount, 'MyToken: Transfer amount exceeds the Max Transaction Amount');\n    }\n\n    if (\n      maxWalletBalance > 0 &&\n      !_isExcludedFromFee[recipient] &&\n      !_isExcludedFromFee[sender] &&\n      recipient != address(pair)\n    ) {\n      uint256 recipientBalance = balanceOf(recipient);\n      require(\n        recipientBalance + amount <= maxWalletBalance,\n        'MyToken: New balance would exceed the maxWalletBalance'\n      );\n    }\n\n    /// Indicates whether or not fee should be deducted from the transfer\n    bool _isTakeFee = takeFeeEnabled;\n\n    /// if any account belongs to _isExcludedFromFee then remove the fee\n    if (_isExcludedFromFee[sender] || _isExcludedFromFee[recipient]) {\n      _isTakeFee = false;\n    }\n\n    ///To check exisiting fee collected and transfer it to accounts\n    _beforeTokenTransfer(sender);\n\n    ///To do the transaction and fee deduction\n    _transferTokens(sender, recipient, amount, _isTakeFee);\n  }\n\n  /**\n   * @dev Private function to transfer collected fee.\n   * @param sender Address\n   */\n  function _beforeTokenTransfer(address sender) private {\n    ///Fee collected is held by contract itself\n    uint256 contractTokenBalance = balanceOf(address(this));\n    bool canSwap = contractTokenBalance > swapTokensAtAmount;\n    bool swapStatus = !swapping && canSwap && swapEnabled;\n\n    /**\n     * Transfering fee on token buy will create issue with uniswap protocols.\n     * Confirming transaction is not uniswap buy\n     */\n    bool sellOnly = sender != pair && sender != address(router);\n\n    if (swapStatus && sellOnly) {\n      /**\n       * During swapBack, _transaction function will be called again.\n       * To complete this transaction without revert from reentrant guard, blocking the reentrancy manually\n       */\n      swapping = true;\n\n      ///Swapping fee collected to ETH and transfering to specified accounts\n      swapBack();\n\n      swapping = false;\n    }\n  }\n\n  /**\n   * @dev Private function to swap part of the contract token balance to ETH and transfer to accounts.\n   */\n  function swapBack() private nonReentrant {\n    /**\n     * amountToSwap will be\n     * marketing fee + crub fund fee + half of liquidity portion\n     * other half of liquidity will be added to pool along with swapped ETH to keep the pool stable\n     */\n    uint256 splitLiquidityPortion = lpPortionOfSwap / 2;\n    uint256 amountToLiquify = (balanceOf(address(this)) * splitLiquidityPortion) / FEES_DIVISOR;\n    uint256 amountToSwap = balanceOf(address(this)) - amountToLiquify;\n\n    uint256 balanceBefore = address(this).balance;\n\n    ///Uniswap swap function to swap token -> ETH\n    swapTokensForETH(amountToSwap);\n\n    uint256 amountETH = address(this).balance - balanceBefore;\n\n    ///Calculating fee in ETH\n    uint256 amountETHMarketing = (amountETH * marketingPortionOfSwap) / FEES_DIVISOR;\n    uint256 amountETHAdminFund = (amountETH * adminPortionOfSwap) / FEES_DIVISOR;\n    uint256 amountETHLiquidity = (amountETH * splitLiquidityPortion) / FEES_DIVISOR;\n\n    //Sending fee in ETH to addresses\n    transferEthToAddress(payable(marketingWallet), amountETHMarketing);\n    transferEthToAddress(payable(adminFundWallet), amountETHAdminFund);\n\n    // Adding liquidity\n    _addLiquidity(amountToLiquify, amountETHLiquidity);\n  }\n\n  /**\n   * @dev Private function to add liquidity to uniswap pool.\n   * @param tokenAmount Token amount\n   * @param ethAmount ETH amount\n   */\n  function _addLiquidity(uint256 tokenAmount, uint256 ethAmount) private {\n    /// Approve token transfer to cover all possible scenarios\n    _approve(address(this), address(router), tokenAmount);\n\n    /// Add the liquidity using uniswap function\n    (uint256 tokenAmountSent, uint256 ethAmountSent, uint256 liquidity) = router.addLiquidityETH{\n      value: ethAmount\n    }(address(this), tokenAmount, 0, 0, owner(), block.timestamp);\n\n    emit LiquidityAdded(tokenAmountSent, ethAmountSent, liquidity);\n  }\n\n  /**\n   * @dev Private function to swap tokens for ETH.\n   * @param tokenAmount Token amount\n   */\n  function swapTokensForETH(uint256 tokenAmount) private {\n    /// Generate the uniswap pair path of token -> weth\n    address[] memory path = new address[](2);\n    path[0] = address(this);\n    path[1] = router.WETH();\n\n    _approve(address(this), address(router), tokenAmount);\n\n    /// Make the swap using uniswap function\n    router.swapExactTokensForETHSupportingFeeOnTransferTokens(\n      tokenAmount,\n      0, /// accept any amount of ETH\n      path,\n      address(this),\n      block.timestamp\n    );\n\n    emit SwapTokensForETH(tokenAmount, path);\n  }\n\n  /**\n   * @dev Private function to do token transfer and deduct fee.\n   * @param sender Address\n   * @param recipient Address\n   * @param amount Token amount\n   * @param takeFee Bool\n   */\n  function _transferTokens(\n    address sender,\n    address recipient,\n    uint256 amount,\n    bool takeFee\n  ) private {\n    uint256 sumOfFees = totalFee;\n\n    /// Transfer between wallets\n    if (sender != pair && recipient != pair) {\n      sumOfFees = 0;\n    }\n\n    if (!takeFee) {\n      sumOfFees = 0;\n    }\n\n    /// Update balances\n    _balances[sender] = _balances[sender] - amount;\n    if (sumOfFees > 0) {\n      /// Deduct fee\n      _takeFee(sender, recipient, amount, sumOfFees);\n    } else {\n      _balances[recipient] = _balances[recipient] + amount;\n      emit Transfer(sender, recipient, amount);\n    }\n  }\n\n  /**\n   * @dev Internal function to calculate fee and transfer amounts.\n   * @param tAmount Amount\n   * @param feesSum Total Fee\n   * @return tTransferAmount Amount to transfer\n   * @return tTotalFees Total fee to deduct\n   */\n  function _getValues(uint256 tAmount, uint256 feesSum) internal pure returns (uint256, uint256) {\n    uint256 tTotalFees = (tAmount * feesSum) / FEES_DIVISOR;\n    uint256 tTransferAmount = tAmount - tTotalFees;\n\n    return (tTransferAmount, tTotalFees);\n  }\n\n  /**\n   * @dev Private function to do transaction and deduct fee.\n   * @param sender Address\n   * @param recipient Address\n   * @param amount Token amount\n   * @param sumOfFees Total fee\n   */\n  function _takeFee(address sender, address recipient, uint256 amount, uint256 sumOfFees) private {\n    (uint256 tTransferAmount, uint256 tTotalFees) = _getValues(amount, sumOfFees);\n    _balances[recipient] = _balances[recipient] + tTransferAmount;\n    _balances[address(this)] = _balances[address(this)] + tTotalFees;\n    collectedFeeTotal = collectedFeeTotal + tTotalFees;\n    emit Transfer(sender, recipient, tTransferAmount);\n  }\n\n  /**\n   * @dev Private function to transfer ETH.\n   * @param recipient Address\n   * @param amount Token amount\n   */\n  function transferEthToAddress(address payable recipient, uint256 amount) private {\n    require(recipient != address(0), 'MyToken: Cannot transfer the ETH to a zero address');\n    (bool sendStatus, ) = payable(recipient).call{ value: amount }('');\n    require(sendStatus, 'MyToken: Failed to transfer ETH');\n  }\n\n  /**\n   * @dev External function to withdraw leftover tokens in terms of ETH.\n   * @param recipient Address\n   * @param amount Token amount\n   */\n  function swapTokensAndWithdrawInETH(\n    address payable recipient,\n    uint256 amount\n  ) external onlyOwner {\n    require(recipient != address(0), 'MyToken: Cannot withdraw to a zero address');\n    require(balanceOf(address(this)) >= amount, 'MyToken: Swap amount exceeds balance');\n    uint256 balanceBefore = address(this).balance;\n    swapTokensForETH(amount);\n    uint256 amountETH = address(this).balance - balanceBefore;\n    require(amountETH > 0, 'MyToken: Zero ETH to transfer');\n    transferEthToAddress(recipient, amountETH);\n  }\n\n  /**\n   * @dev External function to withdraw leftover ETH.\n   * @param recipient Address\n   */\n  function withdrawETH(address payable recipient) external onlyOwner {\n    require(recipient != address(0), 'MyToken: Cannot withdraw to a zero address');\n    (bool sendStatus, ) = payable(recipient).call{ value: address(this).balance }('');\n    require(sendStatus, 'Failed to transfer ETH');\n  }\n}\n",
  "sourcePath": "C:\\Users\\prasa\\Documents\\CODE\\Accubits\\uniswap-v2-erc20-token\\uniswap-v2-erc20-token\\contracts\\MyToken.sol",
  "compiler": {
    "name": "solc",
    "version": "0.8.15+commit.e14f2714.Emscripten.clang"
  },
  "schemaVersion": "3.4.3",
  "updatedAt": "2023-04-08T06:09:55.466Z",
  "devdoc": {
    "kind": "dev",
    "methods": {
      "allowance(address,address)": {
        "details": "Function to check token allowance",
        "params": {
          "owner": "Address",
          "spender": "Address"
        },
        "returns": {
          "_0": "allowance Current token allowance"
        }
      },
      "approve(address,uint256)": {
        "details": "Function to give allowance",
        "params": {
          "amount": "Amount",
          "spender": "Address"
        },
        "returns": {
          "_0": "bool Status"
        }
      },
      "balanceOf(address)": {
        "details": "Function to get token balance",
        "params": {
          "account": "Address"
        },
        "returns": {
          "_0": "balance Current balance"
        }
      },
      "constructor": {
        "details": "Constructor",
        "params": {
          "adminFundWallet_": "Wallet to collect admin fund",
          "marketingWallet_": "Wallet to collect marketing fee",
          "name_": "ERC20 Token name",
          "symbol_": "ERC20 Token symbol"
        }
      },
      "decimals()": {
        "details": "Function to get decimals",
        "returns": {
          "_0": "decimals ERC20 Token decimals"
        }
      },
      "decreaseAllowance(address,uint256)": {
        "details": "Function to decrease allowance",
        "params": {
          "spender": "Address",
          "subtractedValue": "Amount to decrease"
        },
        "returns": {
          "_0": "bool Status"
        }
      },
      "increaseAllowance(address,uint256)": {
        "details": "Function to increase allowance",
        "params": {
          "addedValue": "Amount to increase",
          "spender": "Address"
        },
        "returns": {
          "_0": "bool Status"
        }
      },
      "isExcludedFromFee(address)": {
        "details": "To check if the address is whitelisted",
        "params": {
          "account": "Address"
        }
      },
      "name()": {
        "details": "Function to get name",
        "returns": {
          "_0": "name ERC20 Token name"
        }
      },
      "owner()": {
        "details": "Returns the address of the current owner."
      },
      "renounceOwnership()": {
        "details": "Leaves the contract without owner. It will not be possible to call `onlyOwner` functions anymore. Can only be called by the current owner. NOTE: Renouncing ownership will leave the contract without an owner, thereby removing any functionality that is only available to the owner."
      },
      "setExcludedFromFee(address,bool)": {
        "details": "To whitelist addresses from fee uniswap buy and sell",
        "params": {
          "account": "Address",
          "value": "Bool"
        }
      },
      "setFeeEnabled(bool)": {
        "details": "To enable fee on uniswap buy and sell",
        "params": {
          "_enabled": "Bool"
        }
      },
      "setSwapEnabled(bool)": {
        "details": "To enable uniswap buy and sell",
        "params": {
          "_enabled": "Bool"
        }
      },
      "swapTokensAndWithdrawInETH(address,uint256)": {
        "details": "External function to withdraw leftover tokens in terms of ETH.",
        "params": {
          "amount": "Token amount",
          "recipient": "Address"
        }
      },
      "symbol()": {
        "details": "Function to get symbol",
        "returns": {
          "_0": "symbol ERC20 Token symbol"
        }
      },
      "totalSupply()": {
        "details": "Function to get totalSupply",
        "returns": {
          "_0": "totalSupply ERC20 Token totalSupply"
        }
      },
      "transfer(address,uint256)": {
        "details": "Function to get transfer tokens",
        "params": {
          "amount": "Amount to transfer",
          "recipient": "Address"
        },
        "returns": {
          "_0": "bool Transaction status"
        }
      },
      "transferFrom(address,address,uint256)": {
        "details": "Function to transfer token from allowance",
        "params": {
          "amount": "Amount",
          "recipient": "Address",
          "sender": "Address"
        },
        "returns": {
          "_0": "bool Status"
        }
      },
      "transferOwnership(address)": {
        "details": "Transfers ownership of the contract to a new account (`newOwner`). Can only be called by the current owner."
      },
      "updateAdminFundWallet(address)": {
        "details": "To update admin fund fee wallet address",
        "params": {
          "newWallet": "Address"
        }
      },
      "updateFees(uint256,uint256,uint256)": {
        "details": "To update fee percentages. Must be given as percentage * 100",
        "params": {
          "_adminFundFee": "Admin Fund Fee",
          "_lpFee": "Liquidity Fee",
          "_marketingFee": "Marketing fee"
        }
      },
      "updateMarketingWallet(address)": {
        "details": "To update marketing fee wallet address",
        "params": {
          "newWallet": "Address"
        }
      },
      "updatePortionsOfSwap(uint256,uint256,uint256)": {
        "details": "To update splitting amount of total fee. Must be given as percentage * 100",
        "params": {
          "adminProtion": "Admin Fund Fee",
          "lpPortion": "Liquidity Fee",
          "marketingPortion": "Marketing fee"
        }
      },
      "updateRouterAddress(address)": {
        "details": "To update uniswap router address",
        "params": {
          "newAddress": "Router address"
        }
      },
      "updateSwapTokensAt(uint256)": {
        "details": "To update fee transfering token amount",
        "params": {
          "_swaptokens": "Amount"
        }
      },
      "updateTradingIsEnabled(bool)": {
        "details": "To enable and disable token transactions",
        "params": {
          "tradingStatus": "Bool"
        }
      },
      "updateTransactionMax(uint256)": {
        "details": "To update maximum transaction limit",
        "params": {
          "_txMax": "Amount"
        }
      },
      "updateWalletMax(uint256)": {
        "details": "To update maximum wallet balance",
        "params": {
          "_walletMax": "Amount"
        }
      },
      "withdrawETH(address)": {
        "details": "External function to withdraw leftover ETH.",
        "params": {
          "recipient": "Address"
        }
      }
    },
    "title": "ERC20 Token Custom ERC20 token with fee on Uniswap Buy and Sell",
    "version": 1
  },
  "userdoc": {
    "kind": "user",
    "methods": {
      "adminFee()": {
        "notice": "0.5%"
      },
      "adminPortionOfSwap()": {
        "notice": "16.67%"
      },
      "lpFee()": {
        "notice": "1.5%"
      },
      "lpPortionOfSwap()": {
        "notice": "50%"
      },
      "marketingWallet()": {
        "notice": "To send fee from transactions"
      },
      "maxWalletBalance()": {
        "notice": "0.1% of the total supply"
      },
      "router()": {
        "notice": "33.33%"
      },
      "swapTokensAtAmount()": {
        "notice": "Collected fee will transfered to corresponding wallets only if it reaches this amount"
      },
      "takeFeeEnabled()": {
        "notice": "2% of the total supply"
      }
    },
    "version": 1
  }
}